{
  "contractName": "Bank",
  "abi": [
    {
      "constant": true,
      "inputs": [
        {
          "internalType": "uint256",
          "name": "",
          "type": "uint256"
        }
      ],
      "name": "accounts",
      "outputs": [
        {
          "internalType": "string",
          "name": "password",
          "type": "string"
        },
        {
          "internalType": "uint256",
          "name": "account_balance",
          "type": "uint256"
        },
        {
          "internalType": "uint256",
          "name": "created",
          "type": "uint256"
        },
        {
          "internalType": "uint256",
          "name": "request_count",
          "type": "uint256"
        },
        {
          "internalType": "uint256",
          "name": "transaction_count",
          "type": "uint256"
        }
      ],
      "payable": false,
      "stateMutability": "view",
      "type": "function"
    },
    {
      "constant": true,
      "inputs": [
        {
          "internalType": "uint256",
          "name": "account",
          "type": "uint256"
        },
        {
          "internalType": "string",
          "name": "password",
          "type": "string"
        }
      ],
      "name": "loginAuthenticate",
      "outputs": [
        {
          "internalType": "string",
          "name": "",
          "type": "string"
        }
      ],
      "payable": false,
      "stateMutability": "view",
      "type": "function"
    },
    {
      "constant": false,
      "inputs": [
        {
          "internalType": "uint256",
          "name": "account",
          "type": "uint256"
        },
        {
          "internalType": "string",
          "name": "password",
          "type": "string"
        }
      ],
      "name": "newUser",
      "outputs": [],
      "payable": false,
      "stateMutability": "nonpayable",
      "type": "function"
    },
    {
      "constant": false,
      "inputs": [
        {
          "internalType": "uint256",
          "name": "account",
          "type": "uint256"
        },
        {
          "internalType": "uint256",
          "name": "recipient",
          "type": "uint256"
        },
        {
          "internalType": "uint256",
          "name": "value",
          "type": "uint256"
        }
      ],
      "name": "sendMoney",
      "outputs": [],
      "payable": false,
      "stateMutability": "nonpayable",
      "type": "function"
    },
    {
      "constant": false,
      "inputs": [
        {
          "internalType": "uint256",
          "name": "account",
          "type": "uint256"
        },
        {
          "internalType": "uint256",
          "name": "recipient",
          "type": "uint256"
        },
        {
          "internalType": "uint256",
          "name": "value",
          "type": "uint256"
        }
      ],
      "name": "requestMoney",
      "outputs": [],
      "payable": false,
      "stateMutability": "nonpayable",
      "type": "function"
    },
    {
      "constant": true,
      "inputs": [
        {
          "internalType": "uint256",
          "name": "account",
          "type": "uint256"
        }
      ],
      "name": "getBalance",
      "outputs": [
        {
          "internalType": "uint256",
          "name": "",
          "type": "uint256"
        }
      ],
      "payable": false,
      "stateMutability": "view",
      "type": "function"
    },
    {
      "constant": true,
      "inputs": [
        {
          "internalType": "uint256",
          "name": "account",
          "type": "uint256"
        },
        {
          "internalType": "uint256",
          "name": "index",
          "type": "uint256"
        }
      ],
      "name": "getSender",
      "outputs": [
        {
          "internalType": "uint256",
          "name": "",
          "type": "uint256"
        }
      ],
      "payable": false,
      "stateMutability": "view",
      "type": "function"
    },
    {
      "constant": true,
      "inputs": [
        {
          "internalType": "uint256",
          "name": "account",
          "type": "uint256"
        },
        {
          "internalType": "uint256",
          "name": "index",
          "type": "uint256"
        }
      ],
      "name": "getRecipient",
      "outputs": [
        {
          "internalType": "uint256",
          "name": "",
          "type": "uint256"
        }
      ],
      "payable": false,
      "stateMutability": "view",
      "type": "function"
    },
    {
      "constant": true,
      "inputs": [
        {
          "internalType": "uint256",
          "name": "account",
          "type": "uint256"
        },
        {
          "internalType": "uint256",
          "name": "index",
          "type": "uint256"
        }
      ],
      "name": "getAmount",
      "outputs": [
        {
          "internalType": "uint256",
          "name": "",
          "type": "uint256"
        }
      ],
      "payable": false,
      "stateMutability": "view",
      "type": "function"
    },
    {
      "constant": true,
      "inputs": [
        {
          "internalType": "uint256",
          "name": "account",
          "type": "uint256"
        },
        {
          "internalType": "uint256",
          "name": "index",
          "type": "uint256"
        }
      ],
      "name": "getRole",
      "outputs": [
        {
          "internalType": "string",
          "name": "",
          "type": "string"
        }
      ],
      "payable": false,
      "stateMutability": "view",
      "type": "function"
    },
    {
      "constant": true,
      "inputs": [
        {
          "internalType": "uint256",
          "name": "account",
          "type": "uint256"
        },
        {
          "internalType": "uint256",
          "name": "index",
          "type": "uint256"
        }
      ],
      "name": "getRequestOwner",
      "outputs": [
        {
          "internalType": "uint256",
          "name": "",
          "type": "uint256"
        }
      ],
      "payable": false,
      "stateMutability": "view",
      "type": "function"
    },
    {
      "constant": true,
      "inputs": [
        {
          "internalType": "uint256",
          "name": "account",
          "type": "uint256"
        },
        {
          "internalType": "uint256",
          "name": "index",
          "type": "uint256"
        }
      ],
      "name": "getRequestAmount",
      "outputs": [
        {
          "internalType": "uint256",
          "name": "",
          "type": "uint256"
        }
      ],
      "payable": false,
      "stateMutability": "view",
      "type": "function"
    }
  ],
  "bytecode": "0x608060405234801561001057600080fd5b50610c36806100206000396000f3fe608060405234801561001057600080fd5b50600436106100b45760003560e01c80638486ebcb116100715780638486ebcb146101a557806386b5b252146101c85780638a4366c0146102ea5780639cf42bc614610397578063d3206097146103ba578063f2a40db8146103dd576100b4565b806316b621d6146100b95780631e010439146100ee5780631f038e491461010b57806323e673801461013657806336a31de51461015f5780634ca9899714610182575b600080fd5b6100dc600480360360408110156100cf57600080fd5b508035906020013561048e565b60408051918252519081900360200190f35b6100dc6004803603602081101561010457600080fd5b50356104c6565b6101346004803603606081101561012157600080fd5b50803590602081013590604001356104db565b005b6101346004803603606081101561014c57600080fd5b50803590602081013590604001356106ac565b6100dc6004803603604081101561017557600080fd5b5080359060200135610742565b6100dc6004803603604081101561019857600080fd5b5080359060200135610779565b6100dc600480360360408110156101bb57600080fd5b50803590602001356107b0565b610275600480360360408110156101de57600080fd5b8135919081019060408101602082013564010000000081111561020057600080fd5b82018360208201111561021257600080fd5b8035906020019184600183028401116401000000008311171561023457600080fd5b91908080601f0160208091040260200160405190810160405280939291908181526020018383808284376000920191909152509295506107e7945050505050565b6040805160208082528351818301528351919283929083019185019080838360005b838110156102af578181015183820152602001610297565b50505050905090810190601f1680156102dc5780820380516001836020036101000a031916815260200191505b509250505060405180910390f35b6101346004803603604081101561030057600080fd5b8135919081019060408101602082013564010000000081111561032257600080fd5b82018360208201111561033457600080fd5b8035906020019184600183028401116401000000008311171561035657600080fd5b91908080601f016020809104026020016040519081016040528093929190818152602001838380828437600092019190915250929550610914945050505050565b610275600480360360408110156103ad57600080fd5b50803590602001356109b4565b6100dc600480360360408110156103d057600080fd5b5080359060200135610a79565b6103fa600480360360208110156103f357600080fd5b5035610ab0565b6040518080602001868152602001858152602001848152602001838152602001828103825287818151815260200191508051906020019080838360005b8381101561044f578181015183820152602001610437565b50505050905090810190601f16801561047c5780820380516001836020036101000a031916815260200191505b50965050505050505060405180910390f35b60008281526020819052604081206005018054839081106104ab57fe5b90600052602060002090600202016001015490505b92915050565b60009081526020819052604090206001015490565b6000838152602081905260409020600201546001146104f957600080fd5b60008281526020819052604090206002015460011461051757600080fd5b60008381526020819052604090206001015481111561053557600080fd5b60008381526020818152604080832060018082018054879003905586855282852081018054870190558251608081018452888152808501888152818501888152855180870190965260048087526314d95b9d60e21b878901526060840196875260069095018054808601808355918a52988890208451999096029095019788559051928701929092559051600286015591518051919492936105df92600385019290910190610b66565b505050600083815260208181526040808320815160808101835288815280840188815281840188815284518086019095526008855267149958d95a5d995960c21b8587015260608301948552600690930180546001818101808455928952978790208451600490920201908155915196820196909655915160028301559151805194955091939092610678926003850192910190610b66565b5050506000938452505060208290526040808320600490810180546001908101909155928452922090910180549091019055565b6000838152602081905260409020600201546001146106ca57600080fd5b6000828152602081905260409020600201546001146106e857600080fd5b60008281526020818152604080832081518083019092529581528082019384526005860180546001818101835591855283852092516002909102909201918255935190840155928152909152600390910180549091019055565b600082815260208190526040812060050180548390811061075f57fe5b906000526020600020906002020160000154905092915050565b600082815260208190526040812060060180548390811061079657fe5b906000526020600020906004020160020154905092915050565b60008281526020819052604081206006018054839081106107cd57fe5b906000526020600020906004020160010154905092915050565b60008281526020819052604090206002015460609061081e57506040805180820190915260018152600360fc1b60208201526104c0565b6000838152602081815260409182902080548351601f60026000196101006001861615020190931692909204918201849004840281018401909452808452606093928301828280156108b15780601f10610886576101008083540402835291602001916108b1565b820191906000526020600020905b81548152906001019060200180831161089457829003601f168201915b5050505050905060608390506060604051806040016040528060018152602001600360fc1b815250905081805190602001208380519060200120141561090b57506040805180820190915260018152603160f81b60208201525b95945050505050565b60008281526020819052604090206002015460011415610974576040805162461bcd60e51b81526020600482015260166024820152754163636f756e7420416c72656164792045786973747360501b604482015290519081900360640190fd5b600082815260208181526040909120825161099192840190610b66565b505060009081526020819052604090206064600180830191909155600290910155565b606060008084815260200190815260200160002060060182815481106109d657fe5b6000918252602091829020600360049092020101805460408051601f6002600019610100600187161502019094169390930492830185900485028101850190915281815292830182828015610a6c5780601f10610a4157610100808354040283529160200191610a6c565b820191906000526020600020905b815481529060010190602001808311610a4f57829003601f168201915b5050505050905092915050565b6000828152602081905260408120600601805483908110610a9657fe5b906000526020600020906004020160000154905092915050565b6000602081815291815260409081902080548251601f600260001961010060018616150201909316929092049182018590048502810185019093528083529092839190830182828015610b445780601f10610b1957610100808354040283529160200191610b44565b820191906000526020600020905b815481529060010190602001808311610b2757829003601f168201915b5050505050908060010154908060020154908060030154908060040154905085565b828054600181600116156101000203166002900490600052602060002090601f016020900481019282601f10610ba757805160ff1916838001178555610bd4565b82800160010185558215610bd4579182015b82811115610bd4578251825591602001919060010190610bb9565b50610be0929150610be4565b5090565b610bfe91905b80821115610be05760008155600101610bea565b9056fea265627a7a72315820641f8758d7852d1072e6e98655af252c9a54981b9d277509b1d76312ab95504664736f6c63430005100032",
  "source": "pragma solidity >=0.4.18 <0.9.0;\n\ncontract Bank{\n\n  struct Request{\n    uint from;\n    uint amount;\n  }\n  struct Transaction{\n    uint sender;\n    uint recipient;\n    uint amount;\n    string role;\n  }\n  struct User{\n    string password;\n    uint account_balance;\n    uint created;\n    uint request_count;\n    uint transaction_count;\n    Request [] requests; \n    Transaction [] transactions;\n    \n  }\n\n  mapping(uint => User) public accounts;\n  function loginAuthenticate(uint account,string memory password) view public returns (string memory) {\n\n    if(accounts[account].created == 0){\n      return \"0\";\n    }\n\n    string memory a = accounts[account].password;\n    string memory b = password;\n    string memory check = \"0\";\n    if(keccak256(bytes(a)) == keccak256(bytes(b))){\n      check = \"1\";\n    }\n    return check;\n  }\n\n  function newUser(uint account,string memory password)  public {\n    if(accounts[account].created == 1){\n      revert('Account Already Exists');\n    }\n    \n    accounts[account].password = password;\n    accounts[account].account_balance = 100;\n    accounts[account].created = 1;\n\n  }\n\n  function sendMoney(uint account,uint recipient,uint value) public {\n    require((accounts[account].created == 1));\n    require((accounts[recipient].created == 1)); \n    require(accounts[account].account_balance >= value);\n\n    accounts[account].account_balance -= value;\n    accounts[recipient].account_balance += value;\n\n    accounts[account].transactions.push(Transaction(account,recipient,value,\"Sent\"));\n    accounts[recipient].transactions.push(Transaction(account,recipient,value,\"Received\"));\n\n    accounts[account].transaction_count += 1;\n    accounts[recipient].transaction_count += 1;\n\n  }\n\n  function requestMoney(uint account,uint recipient,uint value) public {\n    require((accounts[account].created == 1));\n    require((accounts[recipient].created == 1));\n\n \n    accounts[recipient].requests.push(Request(account,value));\n\n    accounts[recipient].request_count += 1;\n\n  } \n  function getBalance(uint account) view public returns(uint){\n      return accounts[account].account_balance;\n  }\n\n\n  function getSender(uint account,uint index) view public returns (uint){\n    return accounts[account].transactions[index].sender;\n  }\n\n  function getRecipient(uint account,uint index) view public returns (uint){\n    return accounts[account].transactions[index].recipient;\n  }\n\n  function getAmount(uint account,uint index) view public returns (uint){\n    return accounts[account].transactions[index].amount;\n  }\n\n  function getRole(uint account,uint index) view public returns (string memory){\n    return accounts[account].transactions[index].role;\n  }\n   \n  function getRequestOwner(uint account,uint index) view public returns (uint){\n    return accounts[account].requests[index].from;\n  }\n\n  function getRequestAmount(uint account,uint index) view public returns (uint){\n    return accounts[account].requests[index].amount;\n  }\n\n  \n\n}",
  "sourcePath": "/home/lenovo/DappBank/contracts/Bank.sol",
  "compiler": {
    "name": "solc",
    "version": "0.5.16+commit.9c3226ce.Emscripten.clang"
  },
  "schemaVersion": "3.3.4",
  "updatedAt": "2021-03-17T10:24:15.189Z",
  "networkType": "ethereum",
  "devdoc": {
    "methods": {}
  },
  "userdoc": {
    "methods": {}
  }
}